:1000000061C0000084C0000082C0000080C0000009
:100010007EC000007CC000007AC0000078C00000F4
:1000200076C0000074C0000072C0000070C0000004
:100030006EC0000069C100006AC0000068C0000016
:1000400036C2000064C00000BFC40000EFC400005E
:100050005EC000005CC000005AC0000058C0000034
:1000600056C0000054C0000000000008000201005B
:100070000003040700000000000000000102040863
:100080001020408001020408102001020408102002
:10009000040404040404040402020202020203032E
:1000A00003030303000000002300260029000000D2
:1000B0000000250028002B0000000000240027007D
:1000C0002A003B0511241FBECFEFD8E0DEBFCDBF15
:1000D00011E0A0E0B1E0EEE7FBE002C005900D9278
:1000E000A431B107D9F721E0A4E1B1E001C01D922C
:1000F000AB3CB207E1F710E0C2E6D0E003C02197C5
:10010000FE0135D5C136D107D1F79AD136C578CFA2
:10011000CF92DF92EF92FF920F931F93E82FF92F68
:1001200005C0015011092109310961F1908196231F
:100130009417B9F305C0015011092109310911F1D2
:10014000908196239413F7CFC12CD12CE12CF12C64
:100150000AC08FEFC81AD80AE80AF80A0C151D055C
:100160002E053F0579F080818623841791F36C2D4D
:100170007D2D8E2D9F2D1F910F91FF90EF90DF9081
:10018000CF90089560E070E080E090E01F910F91C3
:10019000FF90EF90DF90CF900895CF93C62F61E04E
:1001A00059D260E08C2FCF9155C24F925F926F92DF
:1001B0007F92AF92BF92CF92DF92EF92FF920F9316
:1001C0001F93CF93DF935C01162FC42FD22F6111A1
:1001D00003C061E0842F3ED260E08C2F77D2B1D192
:1001E0002B013C01AED16419750986099709663067
:1001F000710581059105B0F361E08C2F67D2A1D123
:100200002B013C01C02ED12CF12CE12C9AD1641988
:10021000750986099709C616D706E806F906B0F7E4
:1002200060E08C2F53D2111103C060E08D2F12D2E9
:1002300020E432E44FE050E061E08D2F74D2F5010C
:100240006083718382839383DF91CF911F910F919C
:10025000FF90EF90DF90CF90BF90AF907F906F9026
:100260005F904F900895FC0191E0809117018111FA
:1002700090E091830895809117018F5F843618F480
:100280008093170108951092170108950F93CF934B
:10029000DF9300D000D0CDB7DEB78091C8018111C7
:1002A0001092C8010AE022E043E061E0CE0101962D
:1002B0007CDF0F900F900F900F90DF91CF910F91F7
:1002C0000895CF93DF93C4ECD1E081E090E0A0E00B
:1002D000B0E088839983AA83BB8362E083E05DDF1B
:1002E0001C82DF91CF910895089526E030E040E828
:1002F00055E260E070E090E080E000C0892B19F4E6
:1003000087E291E001C308951F920F920FB60F92FA
:1003100011242F933F934F935F936F937F938F930A
:100320009F93AF93BF93EF93FF9386E09FEF9093DC
:1003300085008093840032D0FF91EF91BF91AF91FF
:100340009F918F917F916F915F914F913F912F91ED
:100350000F900FBE0F901F90189586E09FEF90931F
:10036000850080938400AFE6B0E08C918E7F8C9303
:10037000E0E8F0E080818C7F8083E1E8F0E080813C
:10038000877E808380818360808380818B7F808370
:100390008C9181608C93089581E00895CF93DF93D1
:1003A00000D0CDB7DEB780911A0191E0980F9093FD
:1003B0001A01882369F021E030E030931D01209379
:1003C0001C0180931A010F900F90DF91CF91089537
:1003D000CE01019648DF78944EDFF89480911A019F
:1003E000815080931A018A81882389F080911901B4
:1003F00091E0980F90931901882349F021E030E0B3
:1004000030931D0120931C0180931901DCCF809152
:1004100019018823C1F280911B018111D4CF81E0A1
:1004200080931B01789432DFF894809119018150F8
:100430008093190180911B01815080931B01C3CFD0
:10044000CF93DF931092CA011092C9019FD04DDF64
:10045000C0910001D09101011982188232DFF89415
:100460007CDF2881398181E0232B09F080E08093B3
:10047000C901789478948091C901811107C034DF53
:10048000F89490E080E0DF91CF9108952881398140
:1004900081E0232B09F480E08093CA019091CA0186
:1004A00081E0911180E08093C90176DFE4CF1F9253
:1004B0000F920FB60F9211242F933F938F939F9318
:1004C000AF93BF9380911F0190912001A0912101D2
:1004D000B091220130911E0123E0230F2D3758F5F2
:1004E0000196A11DB11D20931E0180931F019093C1
:1004F0002001A0932101B0932201809123019091CA
:100500002401A0912501B09126010196A11DB11DE4
:100510008093230190932401A0932501B093260199
:10052000BF91AF919F918F913F912F910F900FBEEF
:100530000F901F90189526E8230F0296A11DB11D5C
:10054000D2CF3FB7F8948091230190912401A091DC
:100550002501B091260126B5A89B05C02F3F19F0B3
:100560000196A11DB11D3FBFBA2FA92F982F882733
:10057000BC01CD01620F711D811D911D42E0660F0E
:10058000771F881F991F4A95D1F70895789484B5ED
:10059000826084BD84B5816084BD85B5826085BD7F
:1005A00085B5816085BDEEE6F0E080818160808365
:1005B000E1E8F0E010828081826080838081816048
:1005C0008083E0E8F0E0808181608083E1EBF0E00F
:1005D000808184608083E0EBF0E0808181608083B3
:1005E000EAE7F0E08081846080838081826080839C
:1005F0008081816080838081806880831092C100C7
:100600000895833081F028F4813099F08230A9F088
:1006100008958730A9F08830C9F08430B1F4809112
:1006200080008F7D03C0809180008F778093800051
:10063000089584B58F7784BD089584B58F7DFBCFF1
:100640008091B0008F778093B00008958091B000C2
:100650008F7DF9CFCF93DF9390E0FC01E458FF4FFB
:10066000249180579F4FFC0184918823C9F090E02A
:10067000880F991FFC01E854FF4FA591B491FC012C
:10068000E255FF4FC591D49161110DC09FB7F89409
:100690008C91209582238C938881282328839FBF67
:1006A000DF91CF910895623051F49FB7F8943C9157
:1006B000822F809583238C93E8812E2BEFCF8FB7E9
:1006C000F894EC912E2B2C938FBFEACF1F93CF93EE
:1006D000DF93282F30E0F901E859FF4F8491F901A9
:1006E000E458FF4FD491F901E057FF4FC491CC2358
:1006F000A1F0162F811185DFEC2FF0E0EE0FFF1F28
:10070000E255FF4FA591B4918FB7F894EC91111178
:1007100008C0D095DE23DC938FBFDF91CF911F916E
:100720000895DE2BF8CF0F931F9390E0FC01E4585F
:10073000FF4F7491FC01E057FF4FE4916111672F67
:10074000F0E0EE0FFF1FEC55FF4F8591949189016A
:100750009A013F70462F672FDBDC6115710581051B
:10076000910529F06F5F7F4F8F4F9F4F9F701F91B3
:100770000F910895FC01918D228D892F90E0805C6E
:100780009F4F821B91098F7399270895FC01918DCA
:10079000828D981731F0828DE80FF11D858D90E0E4
:1007A00008958FEF9FEF0895FC01918D828D98172A
:1007B00061F0A28DAE0FBF2FB11D5D968C91928D11
:1007C0009F5F9F73928F90E008958FEF9FEF089542
:1007D000FC01538D448D252F30E0842F90E0821B47
:1007E000930B541710F0CF96089501970895FC01CC
:1007F000A48DA80FB92FB11DA35ABF4F2C91848D82
:1008000090E001968F739927848FA689B7892C93DE
:10081000A089B1898C91837080648C93938D848D31
:10082000981306C00288F389E02D80818F7D808334
:100830000895CF93DF93EC01888D8823B1F0AA89C6
:10084000BB89E889F9898C9185FD03C0808186FD8B
:100850000CC00FB607FCF7CF8C9185FFF2CF8081DB
:1008600085FFEDCFCE01C3DFEACFDF91CF910895B1
:10087000EF92FF920F931F93CF93DF93EC0181E0F0
:10088000888F9B8D8C8D98131AC0E889F989808197
:1008900085FF15C09FB7F894EE89FF896083E889CA
:1008A000F98980818370806480839FBF81E090E0BC
:1008B000DF91CF911F910F91FF90EF900895F62E49
:1008C0000B8D10E00F5F1F4F0F731127E02E8C8DE3
:1008D0008E110BC00FB607FCFACFE889F989808129
:1008E00085FFF5CFCE0183DFF2CFEB8DEC0FFD2F2F
:1008F000F11DE35AFF4FF0829FB7F8940B8FEA89FE
:10090000FB8980818062D0CFCF92DF92EF92FF92FD
:100910001F93CF93DF93EC016A017B01122FE889CB
:10092000F98982E08083C11481EED806E104F104E4
:1009300099F060E079E08DE390E0A7019601F5D0B1
:100940002150310941095109569547953795279509
:10095000211580E1380790F0E889F989108260E874
:1009600074E88EE190E0A7019601DFD021503109B3
:10097000410951095695479537952795EC85FD8591
:100980003083EE85FF852083188EEC89FD891083E6
:10099000EA89FB89808180618083EA89FB89808183
:1009A00088608083EA89FB89808180688083EA8906
:1009B000FB8980818F7D8083DF91CF911F91FF9094
:1009C000EF90DF90CF9008951F920F920FB60F9285
:1009D00011242F938F939F93EF93FF93E09137010F
:1009E000F09138018081E0913D01F0913E0182FD5E
:1009F0001BC09081809140018F5F8F7320914101D6
:100A0000821741F0E0914001F0E0E95DFE4F958FE3
:100A100080934001FF91EF919F918F912F910F90C3
:100A20000FBE0F901F9018958081F4CF1F920F92E8
:100A30000FB60F9211242F933F934F935F936F93B1
:100A40007F938F939F93AF93BF93EF93FF9387E22F
:100A500091E0CDDEFF91EF91BF91AF919F918F918A
:100A60007F916F915F914F913F912F910F900FBEAA
:100A70000F901F901895E7E2F1E01382128288EE42
:100A800093E0A0E0B0E084839583A683B78386E0FB
:100A900091E09183808385EC90E09587848784EC56
:100AA00090E09787868780EC90E0918B808B81EC3B
:100AB00090E0938B828B82EC90E0958B848B86EC1C
:100AC00090E0978B868B118E128E138E148E089564
:100AD000AF92BF92CF92DF92EF92FF920F931F934C
:100AE000CF93DF936C017B018B01040F151FEB018A
:100AF0005E01AE18BF08C017D10759F06991D60141
:100B0000ED91FC910190F081E02DC6010995892BB2
:100B100079F7C501DF91CF911F910F91FF90EF9071
:100B2000DF90CF90BF90AF900895A1E21A2EAA1B3C
:100B3000BB1BFD010DC0AA1FBB1FEE1FFF1FA2178D
:100B4000B307E407F50720F0A21BB30BE40BF50B8A
:100B5000661F771F881F991F1A9469F76095709513
:100B6000809590959B01AC01BD01CF010895EE0FDA
:0E0B7000FF1F0590F491E02D0994F894FFCF3B
:100B7E0014010000000038046805E8031904BA03E4
:040B8E00D403C603C3
:00000001FF
