:100000005CC0000081C000007FC000007DC0000017
:100010007BC0000079C0000077C0000075C0000000
:1000200073C0000071C000006FC000006DC0000010
:100030006BC0000083C3000067C0000065C0000003
:1000400064C5000061C000000C943C080C946E086C
:100050005BC0000059C0000057C0000055C0000040
:1000600053C0000051C00000000000080002010061
:100070000003040700000000000000000102040863
:100080001020408001020408102001020408102002
:10009000040404040404040402020202020203032E
:1000A0000303030300000000250028002B000000CC
:1000B0000000240027002A00930811241FBECFEF60
:1000C000D8E0DEBFCDBF11E0A0E0B1E0ECE4F2E1AA
:1000D00002C005900D92AC31B107D9F722E0ACE136
:1000E000B1E001C01D92A730B207E1F710E0CDE505
:1000F000D0E004C02197FE010E941E09CC35D10733
:10010000C9F77ED30C9424097BCFCF93DF93882348
:1001100041F0EB0181507ED599838883DF91CF91A7
:100120000895FB0111821082F9CF0F931F938B0169
:100130009C0183E036952795179507958A95D1F709
:100140000B5D1E4F462F477021E030E0F90102C0E1
:10015000EE0FFF1F4A95E2F7AF01F801208124233B
:10016000CB010196211102C090E080E01F910F9118
:1001700008950F931F938B019C0183E0369527957B
:10018000179507958A95D1F7677081E090E001C0D7
:10019000880F6A95EAF7F801EB5DFE4F2081452B49
:1001A00031F48095822380831F910F910895822BD3
:1001B000FACFCF92DF92EF92FF92CF93DF936B0152
:1001C0007C0160E08EE0C816D104E104F10488F4FB
:1001D0008EE08C0DBED5E6012196AE01C701B601B9
:1001E000C8DFCE01DF91CF91FF90EF90DF90CF90ED
:1001F00008958C2DEFCF882341F08150682F70E057
:1002000090E080E050E040E0B4CF0895CF92DF92DC
:10021000EF92FF92CF93882331F16A017B01CFEFF8
:10022000C80F20E030E0A901CB01B60120D3181699
:1002300084F0C701B601905823D39B01AC016C2F09
:1002400070E090E080E0CF91FF90EF90DF90CF9052
:10025000ACC0C701B6010FD38C2FCF91FF90EF90A8
:10026000DF90CF90F2C4CF91FF90EF90DF90CF90CE
:1002700008950F931F938B019C0183E0369527957A
:10028000179507958A95D1F7045E1E4F462F477044
:1002900021E030E0F90102C0EE0FFF1F4A95E2F7BE
:1002A000AF01F80120812423CB010196211102C066
:1002B00090E080E01F910F9108950F931F938B01A1
:1002C0009C0183E036952795179507958A95D1F778
:1002D000677081E090E001C0880F6A95EAF7F80145
:1002E000E45EFE4F2081452B31F48095822380838C
:1002F0001F910F910895822BFACF2F923F924F9228
:100300005F926F927F928F929F92AF92BF92CF92A5
:10031000DF92EF92FF920F931F93CF93DF93D62E2E
:10032000C72E782E692E49015A01280161E08D2DD2
:1003300010D5CD2DDC2D8E010F5F1F4FA8016D2D27
:100340007C2D872D962DB9DF20E030E0A901C20178
:10035000B7014CD3181654F4C201B70191D22B0146
:10036000C501B4018DD2A201CE0122D0C801DF9116
:10037000CF911F910F91FF90EF90DF90CF90BF90A2
:10038000AF909F908F907F906F905F904F903F9035
:100390002F900895882341F08150682F70E090E0FD
:1003A00080E050E040E089CF0895862FB9014DC428
:1003B0009C01FC01E859FF4FE491E33059F138F416
:1003C000E13009F1E23019F160E0822FFEC4E7303C
:1003D000C1F1E83009F441C0E430B1F78091800008
:1003E0008C7F82608093800090918100907E9061EC
:1003F000692B609381005093870040938600809121
:10040000800080621BC084B5806884BDDDCF84B568
:100410008062FBCF809180008C7F8260809380001F
:1004200090918100907E9061692B60938100509340
:1004300087004093860080918000806880938000D0
:10044000C3CF8091B00080688093B0008091B100EC
:10045000887F682B6093B100B7CF8091B000806235
:10046000F3CFCF92DF92EF92FF920F931F93CF9330
:10047000DF9300D0CDB7DEB7C0900001D09001016E
:10048000E0900201F0900301A70196016091E10163
:100490007091E2018091E3019091E401E8D1882319
:1004A00041F0C092E101D092E201E092E301F092CA
:1004B000E4016EE070E080E090E037DE9093E001D0
:1004C0008093DF0143E050E0BE016F5F7F4F1DDE90
:1004D00065E070E080E090E0CCDE8C019093EC0170
:1004E0008093EB012091040130910501A981BA812B
:1004F00096D6F2D120E030E040E856E37BD26B01A3
:100500007C0120E030E04FE753E4B1D1181634F419
:10051000C12CD12C8FE7E82E83E4F82EB701A60179
:10052000C80174DE0F900F90DF91CF911F910F9152
:10053000FF90EF90DF90CF9008958F929F92AF92AF
:10054000BF92DF92EF92FF920F931F93CF93DF93AF
:1005500084E090E0ADD0C9EDD1E018828091000137
:1005600090910101A0910201B091030188879987C0
:10057000AA87BB87812C912C5401839489829A820B
:10058000AB82BC826EE070E080E090E012DE9F8380
:100590008E83DD24D394DD821C868D869E86AF8675
:1005A000B88AE12CF12C8701A801970165E070E081
:1005B00080E090E0A2DE9B8B8A8BD98ADF91CF917D
:1005C0001F910F91FF90EF90DF90BF90AF909F90A1
:1005D0008F9008958091D90181111DC081E0809391
:1005E000D9018091DA019091DB01A091DC01B091F9
:1005F000DD010197A105B10571F48091DE01882329
:1006000051F06EE070E080E090E08FDD9093E001CB
:100610008093DF01F0DD8091E50181112AC081E046
:100620008093E5018091E6019091E701A091E801B6
:10063000B091E9010197A105B105D9F48091EA01D2
:100640008823B9F065E070E080E090E012DE9093DE
:10065000EC018093EB0140E050E0BA01D7DD65E0AA
:1006600070E080E090E005DE9093EC018093EB0178
:1006700091CE089560E070E080E89FE7089560E023
:1006800070E080E89FE7089560E070E080E89FEF09
:10069000089560E070E080E89FEF089560E070E00A
:1006A00080EC9FEF089560E070E080EC9FEF08958C
:1006B000F5DF6093F9017093FA018093FB01909349
:1006C000FC01F1DF6093ED017093EE018093EF0187
:1006D0009093F001CFDF6093F5017093F601809362
:1006E000F7019093F801CBDF6093F1017093F20171
:1006F0008093F3019093F401C7DF6093FD01709341
:10070000FE018093FF0190930002C3DF609301021A
:10071000709302028093030290930402089526E0EE
:1007200030E040E855E260E070E090E080E000C03A
:10073000892B19F48CE391E03FC408951F920F9226
:100740000FB60F9211242F933F934F935F936F93A4
:100750007F938F939F93AF93BF93EF93FF9386E025
:100760009FEF909385008093840032D0FF91EF91AA
:10077000BF91AF919F918F917F916F915F914F91B9
:100780003F912F910F900FBE0F901F90189586E00C
:100790009FEF9093850080938400AFE6B0E08C914A
:1007A0008E7F8C93E0E8F0E080818C7F8083E1E8AD
:1007B000F0E08081877E8083808183608083808178
:1007C0008B7F80838C9181608C93089581E0089564
:1007D0008091300191E0980F90933001882349F087
:1007E00021E030E0309332012093310180933001D9
:1007F0000895789436DEF894809130018150F6CFD8
:10080000CF93DF931092060210920502C8D187DFC2
:10081000C0910701D0910801198218828EDEF894E8
:10082000B6DF2881398181E0232B09F080E08093B5
:1008300005027894789480910502811107C0CADE80
:10084000F89490E080E0DF91CF910895288139817C
:1008500081E0232B09F480E0809306029091060248
:1008600081E0911180E080930502B0DFE4CF71D088
:1008700008F481E0089504D06894B111B1C00895DE
:1008800094D088F09F5790F0B92F9927B751A0F0D6
:10089000D1F0660F771F881F991F1AF0BA95C9F714
:1008A00012C0B13081F09BD0B1E0089598C0672F9D
:1008B000782F8827B85F39F0B93FCCF386957795C4
:1008C0006795B395D9F73EF49095809570956195AD
:1008D0007F4F8F4F9F4F0895E89409C097FB3EF4D8
:1008E00090958095709561957F4F8F4F9F4F99237D
:1008F000A9F0F92F96E9BB279395F69587957795FB
:100900006795B795F111F8CFFAF4BB0F11F460FFBA
:100910001BC06F5F7F4F8F4F9F4F16C0882311F012
:1009200096E911C0772321F09EE8872F762F05C026
:10093000662371F096E8862F70E060E02AF09A95C1
:10094000660F771F881FDAF7880F9695879597F9B6
:100950000895990F0008550FAA0BE0E8FEEF161650
:100960001706E807F907C0F012161306E407F507A3
:1009700098F0621B730B840B950B39F40A2661F017
:10098000232B242B252B21F408950A2609F4A140BA
:10099000A6958FEF811D811D089557FD9058440F36
:1009A000551F59F05F3F71F04795880F97FB991FCE
:1009B00061F09F3F79F0879508951216130614068B
:1009C000551FF2CF4695F1DF08C016161706180618
:1009D000991FF1CF86957105610508940895E894F3
:1009E000BB2766277727CB0197F90895B2DF08F474
:1009F0008FEF08950BD078C069D028F06ED018F032
:100A0000952309F05AC05FC01124EACFC6DFA0F3D6
:100A1000959FD1F3950F50E0551F629FF001729F93
:100A2000BB27F00DB11D639FAA27F00DB11DAA1FB2
:100A3000649F6627B00DA11D661F829F2227B00DFF
:100A4000A11D621F739FB00DA11D621F839FA00D8A
:100A5000611D221F749F3327A00D611D231F849FDA
:100A6000600D211D822F762F6A2F11249F57504031
:100A70008AF0E1F088234AF0EE0FFF1FBB1F661FCC
:100A8000771F881F91505040A9F79E3F510570F085
:100A900014C0A6CF5F3FECF3983EDCF386957795C4
:100AA0006795B795F795E7959F5FC1F7FE2B880F80
:100AB000911D9695879597F9089597F99F6780E816
:100AC00070E060E008959FEF80EC089500240A94A0
:100AD0001616170618060906089500240A94121619
:100AE0001306140605060895092E0394000C11F44C
:100AF000882352F0BB0F40F4BF2B11F460FF04C0F9
:100B00006F5F7F4F8F4F9F4F08951F920F920FB6C9
:100B10000F9211242F933F938F939F93AF93BF9383
:100B20008091340190913501A0913601B091370147
:100B30003091330123E0230F2D3758F50196A11D85
:100B4000B11D209333018093340190933501A0931C
:100B50003601B09337018091380190913901A0910D
:100B60003A01B0913B010196A11DB11D809338015E
:100B700090933901A0933A01B0933B01BF91AF919B
:100B80009F918F913F912F910F900FBE0F901F90CB
:100B9000189526E8230F0296A11DB11DD2CF789497
:100BA00084B5826084BD84B5816084BD85B5826072
:100BB00085BD85B5816085BDEEE6F0E08081816010
:100BC0008083E1E8F0E01082808182608083808110
:100BD00081608083E0E8F0E0808181608083E1EBE8
:100BE000F0E0808184608083E0EBF0E080818160D0
:100BF0008083EAE7F0E08081846080838081826086
:100C0000808380818160808380818068808310926E
:100C1000C10008958E3008F08E502091060190E4B6
:100C2000299F900111248770822B80937C008091F2
:100C30007A00806480937A0080917A0086FDFCCFF0
:100C4000809178009091790008951F93CF93DF935E
:100C5000182FEB0161E07DD0209731F460E0812F07
:100C6000DF91CF911F91B1C0CF3FD10511F461E069
:100C7000F6CFE12FF0E0E859FF4FE491E33031F196
:100C800040F4E130B1F0E230E1F0C038D1057CF75A
:100C9000E5CFE73029F1E83059F1E430B1F7809140
:100CA0008000806280938000D0938B00C0938A0084
:100CB00004C084B5806884BDC7BDDF91CF911F910A
:100CC000089584B5806284BDC8BDF7CF809180004F
:100CD000806880938000D0938900C0938800EDCF16
:100CE0008091B00080688093B000C093B300E5CFDE
:100CF0008091B00080628093B000C093B400DDCFDB
:100D0000833081F028F4813099F08230A9F0089581
:100D10008730A9F08830C9F08430B1F48091800028
:100D20008F7D03C0809180008F778093800008952D
:100D300084B58F7784BD089584B58F7DFBCF809176
:100D4000B0008F778093B00008958091B0008F7DC0
:100D5000F9CFCF93DF9390E0FC01E458FF4F24914B
:100D600080579F4FFC0184918823C9F090E0880F41
:100D7000991FFC01E255FF4FA591B491FC01EC5580
:100D8000FF4FC591D49161110DC09FB7F8948C911C
:100D9000209582238C938881282328839FBFDF910D
:100DA000CF910895623051F49FB7F8943C91822F0F
:100DB000809583238C93E8812E2BEFCF8FB7F89407
:100DC000EC912E2B2C938FBFEACF1F93CF93DF9301
:100DD000282F30E0F901E859FF4F8491F901E458D8
:100DE000FF4FD491F901E057FF4FC491CC23A1F0FC
:100DF000162F811185DFEC2FF0E0EE0FFF1FEC5571
:100E0000FF4FA591B4918FB7F894EC91111108C0E0
:100E1000D095DE23DC938FBFDF91CF911F91089592
:100E2000DE2BF8CFFC01918D228D892F90E0805C24
:100E30009F4F821B91098F7399270895FC01918D13
:100E4000828D981731F0828DE80FF11D858D90E02D
:100E500008958FEF9FEF0895FC01918D828D981773
:100E600061F0A28DAE0FBF2FB11D5D968C91928D5A
:100E70009F5F9F73928F90E008958FEF9FEF08958B
:100E8000FC01538D448D252F30E0842F90E0821B90
:100E9000930B541710F0CF96089501970895FC0115
:100EA000A48DA80FB92FB11DA35ABF4F2C91848DCB
:100EB00090E001968F739927848FA689B7892C9328
:100EC000A089B1898C91837080648C93938D848D7B
:100ED000981306C00288F389E02D80818F7D80837E
:100EE0000895CF93DF93EC01888D8823B1F0AA8910
:100EF000BB89E889F9898C9185FD03C0808186FDD5
:100F00000CC00FB607FCF7CF8C9185FFF2CF808124
:100F100085FFEDCFCE01C3DFEACFDF91CF910895FA
:100F2000EF92FF920F931F93CF93DF93EC0181E039
:100F3000888F9B8D8C8D98131AC0E889F9898081E0
:100F400085FF15C09FB7F894EE89FF896083E88913
:100F5000F98980818370806480839FBF81E090E005
:100F6000DF91CF911F910F91FF90EF900895F62E92
:100F70000B8D10E00F5F1F4F0F731127E02E8C8D2C
:100F80008E110BC00FB607FCFACFE889F989808172
:100F900085FFF5CFCE0183DFF2CFEB8DEC0FFD2F78
:100FA000F11DE35AFF4FF0829FB7F8940B8FEA8947
:100FB000FB8980818062D0CFCF92DF92EF92FF9247
:100FC0001F93CF93DF93EC016A017B01122FE88915
:100FD000F98982E08083C11481EED806E104F1042E
:100FE00099F060E079E08DE390E0A7019601F5D0FB
:100FF0002150310941095109569547953795279553
:10100000211580E1380790F0E889F989108260E8BD
:1010100074E88EE190E0A7019601DFD021503109FC
:10102000410951095695479537952795EC85FD85DA
:101030003083EE85FF852083188EEC89FD8910832F
:10104000EA89FB89808180618083EA89FB898081CC
:1010500088608083EA89FB89808180688083EA894F
:10106000FB8980818F7D8083DF91CF911F91FF90DD
:10107000EF90DF90CF9008951F920F920FB60F92CE
:1010800011242F938F939F93EF93FF93E0914C0143
:10109000F0914D018081E0915201F091530182FD68
:1010A0001BC09081809155018F5F8F7320915601F5
:1010B000821741F0E0915501F0E0E45CFE4F958F1E
:1010C00080935501FF91EF919F918F912F910F90F8
:1010D0000FBE0F901F9018958081F4CF1F920F9232
:1010E0000FB60F9211242F933F934F935F936F93FB
:1010F0007F938F939F93AF93BF93EF93FF938CE373
:1011000091E0CDDEFF91EF91BF91AF919F918F91D3
:101110007F916F915F914F913F912F910F900FBEF3
:101120000F901F901895ECE3F1E01382128288EE85
:1011300093E0A0E0B0E084839583A683B7838DE03D
:1011400091E09183808385EC90E09587848784EC9F
:1011500090E09787868780EC90E0918B808B81EC84
:1011600090E0938B828B82EC90E0958B848B86EC65
:1011700090E0978B868B118E128E138E148E0895AD
:10118000AF92BF92CF92DF92EF92FF920F931F9395
:10119000CF93DF936C017B018B01040F151FEB01D3
:1011A0005E01AE18BF08C017D10759F06991D6018A
:1011B000ED91FC910190F081E02DC6010995892BFC
:1011C00079F7C501DF91CF911F910F91FF90EF90BB
:1011D000DF90CF90BF90AF900895A1E21A2EAA1B86
:1011E000BB1BFD010DC0AA1FBB1FEE1FFF1FA217D7
:1011F000B307E407F50720F0A21BB30BE40BF50BD4
:10120000661F771F881F991F1A9469F7609570955C
:10121000809590959B01AC01BD01CF010895A29FDF
:10122000B001B39FC001A39F700D811D1124911DBA
:10123000B29F700D811D1124911D0895EE0FFF1FA7
:0C1240000590F491E02D0994F894FFCF84
:10124C00000080BF40FF012E01000000009007C08D
:0C125C00084007710712072C071E07004E
:00000001FF
