:100000000C945D000C9485000C9485000C94850084
:100010000C9485000C9485000C9485000C9485004C
:100020000C9485000C9485000C9485000C941302AC
:100030000C9485000C9485000C9485000C9485002C
:100040000C94C9010C9485000C9485000C948500D7
:100050000C9485000C9485000C9485000C9485000C
:100060000C9485000C9485000000000024002700FB
:100070002A0000000000250028002B0004040404CE
:100080000404040402020202020203030303030342
:10009000010204081020408001020408102001021F
:1000A00004081020000000080002010000030407FB
:1000B0000000000000000000590511241FBECFEF12
:1000C000D8E0DEBFCDBF11E0A0E0B1E0E6E8F0E1AE
:1000D00002C005900D92A030B107D9F721E0A0E051
:1000E000B1E001C01D92A235B207E1F710E0CDE505
:1000F000D0E004C02197FE010E943B08CC35D10717
:10010000C9F70E94CF020C9441080C94000090E0C3
:10011000FC01EC55FF4F2491FC01E057FF4F349157
:10012000FC01E458FF4FE491EE23C9F0222339F09B
:10013000233001F1A8F4213019F1223029F1F0E047
:10014000EE0FFF1FEE58FF4FA591B4918FB7F894B3
:10015000EC91611126C030953E233C938FBF0895EA
:100160002730A9F02830C9F0243049F78091800069
:100170008F7D03C0809180008F7780938000DFCFD8
:1001800084B58F7784BDDBCF84B58F7DFBCF809125
:10019000B0008F778093B000D2CF8091B0008F7D78
:1001A000F9CF3E2BDACFCF93DF9390E0FC01E057FD
:1001B000FF4F249184589F4FFC0184918823D1F0F4
:1001C00090E0880F991FFC01E859FF4FA591B49169
:1001D000FC01EE58FF4FC591D49161110EC09FB73D
:1001E000F8948C91E22FE0958E238C932881E22362
:1001F000E8839FBFDF91CF9108958FB7F894EC917A
:10020000E22BEC938FBFF6CF8E50806480937C00FE
:1002100080917A00806480937A0080917A0086FDD4
:10022000FCCF809178009091790008953FB7F894C1
:1002300080914E0190914F01A0915001B0915101D8
:1002400026B5A89B05C02F3F19F00196A11DB11D31
:100250003FBFBA2FA92F982F8827BC01CD01620F6D
:10026000711D811D911D42E0660F771F881F991F28
:100270004A95D1F70895CF92DF92EF92FF92CF93F4
:10028000DF93EC01603282E07807CCF5653B7105C5
:1002900014F064EB70E0898128E830E0281B310914
:1002A00087FD3395220F331F220F331F6901330F50
:1002B000EE08FF088A8128E532E0281B310987FD16
:1002C0003395220F331F220F331F032E000C440BD4
:1002D000550B2C193D094E095F09DB0177FF02C060
:1002E000B0E0A0E00E94B80524EB30E040E050E030
:1002F0000E948E05C20ED31EE41EF51EB601E881D3
:10030000EC3070F5298188E890E0821B910927FD87
:100310009395880F991F880F991F681779077CF0AC
:100320002A8188E592E0821B910927FD9395880F29
:10033000991F880F991F681779070CF4CB01029752
:10034000880F991F4FB7F8942E2F30E0F901EE0F68
:10035000FF1FE20FF31FEE5FFE4F928381834FBFBB
:10036000DF91CF91FF90EF90DF90CF900895892B90
:1003700079F41092800082E08093810010928500D1
:1003800010928400B19A80916F00826080936F0018
:1003900008951F920F920FB60F9211242F933F933F
:1003A0008F939F93AF93BF9380914A0190914B019C
:1003B000A0914C01B0914D013091490123E0230FF0
:1003C0002D3758F50196A11DB11D20934901809349
:1003D0004A0190934B01A0934C01B0934D01809141
:1003E0004E0190914F01A0915001B09151010196A1
:1003F000A11DB11D80934E0190934F01A093500118
:10040000B0935101BF91AF919F918F913F912F91E7
:100410000F900FBE0F901F90189526E8230F02969D
:10042000A11DB11DD2CF1F920F920FB60F921124B2
:100430002F933F934F935F936F937F938F939F93EC
:10044000AF93BF93CF93DF93EF93FF93809101011D
:10045000C0910001D0E087FF24C010928500109267
:100460008400809101018F5F8093010180910101DF
:10047000082E000C990B8C179D0724F48091010124
:100480008C30C4F180918400909185000496803472
:100490009C4908F47AC0809184009091850004966C
:1004A00076C080910101082E000C990B8C179D07D6
:1004B000C4F6E09101018E2FEE0F990BFC01EE0FB7
:1004C000FF1FE80FF91FEE5FFE4F808186FFC9CF47
:1004D000E09101018E2FEE0F990BFC01EE0FFF1F33
:1004E000E80FF91FEE5FFE4F808160E08F730E947E
:1004F0008700B7CF2091840030918500E091010101
:100500008E2FEE0F990BFC01EE0FFF1FE80FF91F66
:10051000EE5FFE4F81819281820F931F909389003D
:1005200080938800E09101018E2FEE0F990BFC0162
:10053000EE0FFF1FE80FF91FEE5FFE4F808186FF71
:1005400011C0E09101018E2FEE0F990BFC01EE0F0F
:10055000FF1FE80FF91FEE5FFE4F808161E08F7390
:100560000E948700FF91EF91DF91CF91BF91AF91F2
:100570009F918F917F916F915F914F913F912F91BB
:100580000F900FBE0F901F90189580E49CE99093F8
:100590008900809388008FEF80930101E3CFCF9390
:1005A000DF93CDB7DEB760970FB6F894DEBF0FBE0E
:1005B000CDBF789484B5826084BD84B5816084BDEC
:1005C00085B5826085BD85B5816085BD80916E00F1
:1005D000816080936E001092810080918100826022
:1005E000809381008091810081608093810080915F
:1005F00080008160809380008091B100846080934E
:10060000B1008091B00081608093B00080917A0049
:10061000846080937A0080917A00826080937A006F
:1006200080917A00816080937A0080917A0080685E
:1006300080937A001092C10060E08EE00E94D300A7
:1006400060E08FE00E94D30060E080E10E94D30070
:1006500060E081E10E94D30080912E018C3008F08F
:1006600043C061E086E00E94D30080912E01282FD4
:1006700030E0F901EE0FFF1FE20FF31FEE5FFE4FB8
:100680009081907C9660908310922F01109230019F
:100690002CE0622F0E942F0890E0829FB00111246D
:1006A00030E020E0AB01420F531FFA01EE0FFF1FB5
:1006B000E40FF51FEE5FFE4F408146FD07C02F5F40
:1006C0003F4F2C30310571F70E94B701E0912E01A8
:1006D0008E2F90E0FC01EE0FFF1FE80FF91FEE5F79
:1006E000FE4F80818064808380912B018C3008F0E4
:1006F00043C061E085E00E94D30080912B01282F48
:1007000030E0F901EE0FFF1FE20FF31FEE5FFE4F27
:100710009081907C9560908310922C0110922D0115
:100720002CE0622F0E942F0890E0829FB0011124DC
:1007300030E020E0AB01420F531FFA01EE0FFF1F24
:10074000E40FF51FEE5FFE4F408146FD07C02F5FAF
:100750003F4F2C30310571F70E94B701E0912B011A
:100760008E2F90E0FC01EE0FFF1FE80FF91FEE5FE8
:10077000FE4F80818064808385EB94EBA4E3BFE32C
:100780008093260190932701A0932801B09329011B
:1007900011E08EE00E940401BC01990F880B990BB7
:1007A0000E940D072B013C014092390150923A0101
:1007B00060923B0170923C018FE00E940401BC01F9
:1007C000990F880B990B0E940D074B015C018092D9
:1007D0003D0190923E01A0923F01B092400180E124
:1007E0000E940401BC01990F880B990B0E940D0710
:1007F00069837A838B839C83609341017093420168
:10080000809343019093440181E10E940401BC0163
:10081000990F880B990B0E940D076B017C01C09208
:100820004501D0924601E0924701F0924801809143
:100830002A0181118EC02AE038E240EA5BE3C3015D
:10084000B2010E94C2076D837E838F8398872AE05E
:1008500038E240EA5BE3C501B4010E94C207698740
:100860007A878B879C879B01AC016D817E818F810C
:1008700098850E94F2054B015C012AE038E240EACB
:100880005BE3C701B6010E94C2076D877E878F8731
:10089000988B2AE038E240EA5BE369817A818B81B8
:1008A0009C810E94C20769837A838B839C839B010E
:1008B000AC016D857E858F8598890E94F2056B015C
:1008C0007C0110932A01AC019B01C501B4010E9477
:1008D000F1059F7720E030E040E05FE30E945E0694
:1008E00018160CF47EC01092350110923601109249
:1008F0003701109238012D853E854F8558896985CD
:100900007A858B859C850E94F2056B017C0129818B
:100910003A814B815C816D817E818F8198850E94B7
:10092000F2054B015C01A70196010E94F1059F773A
:1009300020E030E040E05FE30E945E0618160CF411
:1009400084C0109231011092320110923301109242
:1009500034016091310170913201809133019091A5
:1009600034010E94D5068EE291E00E943B01609125
:1009700035017091360180913701909138010E94C4
:10098000D5068BE291E00E943B010E9416014B01CB
:100990005C0184E6C82ED12CE12CF12C0E941601BA
:1009A000681979098A099B09683E73408105910598
:1009B000A8F321E0C21AD108E108F10888EE880EF8
:1009C00083E0981EA11CB11CC114D104E104F10400
:1009D00029F780E090E0892B09F4DBCE0E9400002B
:1009E000D8CE409026015090270160902801709049
:1009F0002901A7019601C501B4010E94BD0720E0AD
:100A000030E040E05FE31816ECF4C501B4010E9449
:100A1000C20720E030E04FE753E40E94C20720E025
:100A200030E040EA50E40E946306A30192010E9474
:100A3000C20760933501709336018093370190931C
:100A4000380159CFC701B601E2CF4090260150903E
:100A500027016090280170902901A5019401C70128
:100A6000B6010E945E0620E030E040E05FE387FFD1
:100A70001DC0C501B4010E94C20720E030E04FE76D
:100A800053E40E94C20720E030E040EA50E40E94B4
:100A90006306A30192010E94C20760933101709323
:100AA0003201809333019093340153CFC701B601D3
:100AB000E2CF809100018C3048F591E0980F90933F
:100AC000000180932E0190E0FC01EE0FFF1FE80F64
:100AD000F91FEE5FFE4F88EB9BE09283818380914C
:100AE00000018C30B8F491E0980F9093000180934E
:100AF0002B0190E0FC01EE0FFF1FE80FF91FEE5FE6
:100B0000FE4F88EB9BE09283818308958FEF809363
:100B10002E01E5CF8FEF80932B010895052E97FBD3
:100B20001EF400940E94A50557FD07D00E94C00541
:100B300007FC03D04EF40C94A505509540953095D4
:100B400021953F4F4F4F5F4F089590958095709539
:100B500061957F4F8F4F9F4F08950E94E205A59F9B
:100B6000900DB49F900DA49F800D911D11240895A8
:100B7000B7FF0C94AD050E94AD05821B930B089541
:100B8000A1E21A2EAA1BBB1BFD010DC0AA1FBB1F91
:100B9000EE1FFF1FA217B307E407F50720F0A21B03
:100BA000B30BE40BF50B661F771F881F991F1A9470
:100BB00069F760957095809590959B01AC01BD019A
:100BC000CF010895A29FB001B39FC001A39F700DF4
:100BD000811D1124911DB29F700D811D1124911D45
:100BE00008955058BB27AA270E9409060C94830732
:100BF0000E94750738F00E947C0720F039F49F3F6F
:100C000019F426F40C9472070EF4E095E7FB0C94AB
:100C10006C07E92F0E94940758F3BA17620773070D
:100C20008407950720F079F4A6F50C94B6070EF426
:100C3000E0950B2EBA2FA02D0B01B90190010C01EC
:100C4000CA01A0011124FF27591B99F0593F50F404
:100C5000503E68F11A16F040A22F232F342F44275C
:100C6000585FF3CF469537952795A795F040539554
:100C7000C9F77EF41F16BA0B620B730B840BBAF024
:100C80009150A1F0FF0FBB1F661F771F881FC2F78F
:100C90000EC0BA0F621F731F841F48F487957795A3
:100CA0006795B795F7959E3F08F0B0CF9395880F5D
:100CB00008F09927EE0F9795879508950E944807A9
:100CC00008F481E008950E9477060C9483070E943F
:100CD0007C0758F00E94750740F029F45F3F29F027
:100CE0000C946C0751110C94B7070C9472070E9476
:100CF000940768F39923B1F3552391F3951B550B92
:100D0000BB27AA2762177307840738F09F5F5F4FDE
:100D1000220F331F441FAA1FA9F335D00E2E3AF01D
:100D2000E0E832D091505040E695001CCAF72BD035
:100D3000FE2F29D0660F771F881FBB1F2617370786
:100D40004807AB07B0E809F0BB0B802DBF01FF27B8
:100D500093585F4F3AF09E3F510578F00C946C0722
:100D60000C94B7075F3FE4F3983ED4F386957795EC
:100D70006795B795F7959F5FC9F7880F911D969571
:100D8000879597F90895E1E0660F771F881FBB1FCD
:100D9000621773078407BA0720F0621B730B840B7A
:100DA000BA0BEE1F88F7E09508950E94DC06689460
:100DB000B1110C94B70708950E949C0788F09F57C3
:100DC00098F0B92F9927B751B0F0E1F0660F771F6F
:100DD000881F991F1AF0BA95C9F714C0B13091F065
:100DE0000E94B607B1E008950C94B607672F782FDC
:100DF0008827B85F39F0B93FCCF38695779567952A
:100E0000B395D9F73EF490958095709561957F4F95
:100E10008F4F9F4F0895E89409C097FB3EF490953B
:100E20008095709561957F4F8F4F9F4F9923A9F0C3
:100E3000F92F96E9BB279395F69587957795679552
:100E4000B795F111F8CFFAF4BB0F11F460FF1BC096
:100E50006F5F7F4F8F4F9F4F16C0882311F096E929
:100E600011C0772321F09EE8872F762F05C06623D7
:100E700071F096E8862F70E060E02AF09A95660F90
:100E8000771F881FDAF7880F9695879597F9089549
:100E9000990F0008550FAA0BE0E8FEEF161617068B
:100EA000E807F907C0F012161306E407F50798F0F3
:100EB000621B730B840B950B39F40A2661F0232B0C
:100EC000242B252B21F408950A2609F4A140A69588
:100ED0008FEF811D811D089597F99F6780E870E06D
:100EE00060E008959FEF80EC089500240A941616A0
:100EF000170618060906089500240A941216130608
:100F0000140605060895092E0394000C11F4882395
:100F100052F0BB0F40F4BF2B11F460FF04C06F5FB1
:100F20007F4F8F4F9F4F089557FD9058440F551F87
:100F300059F05F3F71F04795880F97FB991F61F05B
:100F40009F3F79F087950895121613061406551FD2
:100F5000F2CF4695F1DF08C0161617061806991F3E
:100F6000F1CF86957105610508940895E894BB2733
:100F700066277727CB0197F908950E94480708F460
:100F80008FEF08950E94D5070C9483070E94750780
:100F900038F00E947C0720F0952311F00C946C0728
:100FA0000C94720711240C94B7070E94940770F3F5
:100FB000959FC1F3950F50E0551F629FF001729FFE
:100FC000BB27F00DB11D639FAA27F00DB11DAA1F0D
:100FD000649F6627B00DA11D661F829F2227B00D5A
:100FE000A11D621F739FB00DA11D621F839FA00DE5
:100FF000611D221F749F3327A00D611D231F849F35
:10100000600D211D822F762F6A2F11249F5750408B
:101010009AF0F1F088234AF0EE0FFF1FBB1F661F06
:10102000771F881F91505040A9F79E3F510580F0CF
:101030000C946C070C94B7075F3FE4F3983ED4F32D
:10104000869577956795B795F795E7959F5FC1F773
:10105000FE2B880F911D9695879597F90895991BFA
:1010600079E004C0991F961708F0961B881F7A959F
:10107000C9F780950895EE0FFF1F0590F491E02DBC
:061080000994F894FFCF73
:00000001FF
