:100000005DC0000080C000007EC000007CC0000019
:100010007AC0000078C0000076C0000074C0000004
:1000200072C00000C6C100006EC000007DC20000AA
:100030006AC0000068C0000066C0000064C0000024
:1000400059C4000060C00000B1C60000E1C6000055
:100050005AC0000058C0000056C0000054C0000044
:1000600052C0000050C00000000000080002010063
:100070000003040700000000000000000102040863
:100080001020408001020408102001020408102002
:10009000040404040404040402020202020203032E
:1000A0000303030300000000250028002B000000CC
:1000B0000000240027002A0015012D0711241FBE6F
:1000C000CFEFD8E0DEBFCDBF11E0A0E0B1E0E0E8C7
:1000D000F0E102C005900D92AC31B107D9F722E0F2
:1000E000ACE1B1E001C01D92AD30B207E1F710E024
:1000F000CEE5D0E003C02197FE01BAD7CC35D107B9
:10010000D1F7B3D1BBC77CCFCF93DF93882341F026
:10011000EB01815074D499838883DF91CF91089546
:10012000FB0111821082F9CF0F931F938B019C0169
:1001300083E036952795179507958A95D1F7045E44
:100140001E4F462F477021E030E0F90102C0EE0F4C
:10015000FF1F4A95E2F7AF01F80120812423CB016C
:100160000196211102C090E080E01F910F91089547
:100170000F931F938B019C0183E03695279517956C
:1001800007958A95D1F7677081E090E001C0880FEC
:100190006A95EAF7F801E45EFE4F2081452B31F4C1
:1001A0008095822380831F910F910895822BFACF2F
:1001B000CF92DF92EF92FF92CF93DF936B017C019E
:1001C00060E08EE0C816D104E104F10488F48EE00A
:1001D0008C0D59D4E6012196AE01C701B601C8DFE6
:1001E000CE01DF91CF91FF90EF90DF90CF900895F7
:1001F0008C2DEFCF882341F08150682F70E090E084
:1002000080E050E040E0B4CF089570E023E0829FAA
:10021000C00111248B5D9E4FD8C270E023E0829F05
:10022000C00111248B5D9E4F0CC385E291E035C265
:10023000CF92DF92EF92FF92CF93DF9300D0CDB7B2
:10024000DEB7C0900001D0900101E0900201F09073
:100250000301A70196016091010270910202809151
:1002600003029091040238D1882341F0C092010228
:10027000D0920202E0920302F09204026EE070E07B
:1002800080E090E051DF909300028093FF0143E013
:1002900050E0BE016F5F7F4F37DF20910401309146
:1002A0000501A981BA81CBD622E1969587957795EC
:1002B00067952A95D1F7653B08F064EB80E0ADDFE8
:1002C0000F900F90DF91CF91FF90EF90DF90CF9044
:1002D0000895CF92DF92EF92FF921F93CF93DF9317
:1002E000C9EFD1E018828091000190910101A091A5
:1002F0000201B091030188879987AA87BB87C12C27
:10030000D12C7601C394C982DA82EB82FC826EE042
:1003100070E080E090E04CDF9F838E8311E01D83CE
:100320001C86CD86DE86EF86F88A69E080E06DDF88
:10033000198BDF91CF911F91FF90EF90DF90CF90BD
:1003400008958091F90181111DC081E08093F90128
:100350008091FA019091FB01A091FC01B091FD0107
:100360000197A105B10571F48091FE01882351F038
:100370006EE070E080E090E0D7DE90930002809322
:10038000FF0138DF80910502811103C081E0809375
:100390000502089526E030E040E855E260E070E0B4
:1003A00090E080E000C0892B19F48CE591E09EC4B8
:1003B00008951F920F920FB60F9211242F933F931F
:1003C0004F935F936F937F938F939F93AF93BF935D
:1003D000EF93FF9383E88093B2002FD0FF91EF91CA
:1003E000BF91AF919F918F917F916F915F914F914D
:1003F0003F912F910F900FBE0F901F90189583E89B
:100400008093B200A0E7B0E08C918E7F8C93E0EBFC
:10041000F0E080818C7F8083E1EBF0E08081877F5A
:10042000808380818560808380818D7F80838C91B3
:1004300081608C93089581E0089580912A0191E074
:10044000980F90932A01882349F021E030E03093FF
:100450002C0120932B0180932A0108957894E8DEE3
:10046000F89480912A018150F6CFCF93DF931092B8
:100470000C0210920B0288D28DDFC0910701D0913F
:1004800008011982188225DFF894B9DF28813981A3
:1004900081E0232B09F080E080930B02789478941C
:1004A00080910B02811107C04CDFF89490E080E04E
:1004B000DF91CF9108952881398181E0232B09F4C0
:1004C00080E080930C0290910C0281E0911180E019
:1004D00080930B02B0DFE4CF03D008F481E00895ED
:1004E000990F0008550FAA0BE0E8FEEF1616170645
:1004F000E807F907C0F012161306E407F50798F0AD
:10050000621B730B840B950B39F40A2661F0232BC5
:10051000242B252B21F408950A2609F4A140A69541
:100520008FEF811D811D08951F920F920FB60F92BC
:1005300011242F933F934F935F936F937F938F93E8
:100540009F93AF93BF93EF93FF9380912E0187FF0B
:1005500027C0109285001092840080912E018F5F39
:1005600080932E0180912E01082E000C990B209172
:100570002D012817190629F024F080912E018C30C6
:10058000D4F18091840090918500049680349C4938
:1005900008F479C08091840090918500049675C01C
:1005A00080912E01082E000C990B20912D01281707
:1005B000190699F294F2E0912E018E2FEE0F990B0D
:1005C000FC01EE0FFF1FE80FF91FE15DFE4F808178
:1005D00086FFC3CFE0912E018E2FEE0F990BFC0109
:1005E000EE0FFF1FE80FF91FE15DFE4F808160E015
:1005F0008F7385D2B2CF2091840030918500E09135
:100600002E018E2FEE0F990BFC01EE0FFF1FE80F4E
:10061000F91FE15DFE4F81819281820F931F9093BC
:10062000890080938800E0912E018E2FEE0F990BA8
:10063000FC01EE0FFF1FE80FF91FE15DFE4F808107
:1006400086FF10C0E0912E018E2FEE0F990BFC015A
:10065000EE0FFF1FE80FF91FE15DFE4F808161E0A3
:100660008F734DD2FF91EF91BF91AF919F918F9179
:100670007F916F915F914F913F912F910F900FBE9E
:100680000F901F90189580E49CE9909389008093C7
:1006900088008FEF80932E01E5CFFC0190912D0112
:1006A0009C3098F481E0890F80932D019083892FED
:1006B00090E0FC01EE0FFF1FE80FF91FE15DFE4F18
:1006C00088EB9BE09283818308958FEF8083089568
:1006D000DF92EF92FF920F931F93CF93DF93EC0182
:1006E000D62E7A01890188818C3008F065C061E0DE
:1006F0008D2DC9D18881282F30E0F901EE0FFF1F21
:10070000E20FF31FE15DFE4F9D2D9F736081607CC2
:10071000692B608320E232E02E193F0937FF02C0C7
:100720002D5F3F4F3595279535952795298320E6F1
:1007300039E0201B310B37FF02C02D5F3F4F35954D
:100740002795359527952A832CE0622F2ED4829FFA
:10075000B001112430E020E0AB01420F531FFA0139
:10076000EE0FFF1FE40FF51FE15DFE4F908196FD38
:1007700016C02F5F3F4F2C30310571F781110FC02C
:100780001092800082E08093810010928500109288
:100790008400B19A80916F00826080936F00E8813D
:1007A0008E2F90E0FC01EE0FFF1FE80FF91FE15DB7
:1007B000FE4F8081806480838881DF91CF911F917B
:1007C0000F91FF90EF90DF90089520E639E040E22E
:1007D00052E07ECFDC01EC91EC3090F511968C91DB
:1007E000119728E830E0281B310987FD3395220F47
:1007F000331F220F331F6217730784F012968C91F8
:1008000028E532E0281B310987FD3395220F331F7D
:10081000220F331F621773070CF49B01225031091A
:10082000220F331F4FB7F8948E2F90E0FC01EE0F8C
:10083000FF1FE80FF91FE15DFE4F328321834FBF99
:100840000895AF92BF92CF92DF92EF92FF920F93F3
:100850001F93CF93DF93EC01603282E078070CF0B6
:100860003DC0653B710514F064EB70E0898148E898
:10087000A42EB12CA81AB10887FDB394AA0CBB1CF6
:10088000AA0CBB1C0B2C000CCC08DD0877FF02C0A7
:1008900070E060E0072E000C880B990B2A8108E5B8
:1008A00012E0021B110927FD1395000F111F000F05
:1008B000111F012E000C220B330B3F932F931F931C
:1008C0000F9314EBE12EF12C00E010E020E030E07B
:1008D000A9011DD30F900F900F900F90CE01DF91C3
:1008E000CF911F910F91FF90EF90DF90CF90BF902D
:1008F000AF9070CF1F920F920FB60F9211242F93CB
:100900003F938F939F93AF93BF93809154019091A6
:100910005501A0915601B09157013091530123E048
:10092000230F2D3758F50196A11DB11D20935301BA
:100930008093540190935501A0935601B0935701B1
:100940008091580190915901A0915A01B0915B0199
:100950000196A11DB11D8093580190935901A09358
:100960005A01B0935B01BF91AF919F918F913F91DD
:100970002F910F900FBE0F901F90189526E8230F10
:100980000296A11DB11DD2CF789484B5826084BD3A
:1009900084B5816084BD85B5826085BD85B5816083
:1009A00085BDEEE6F0E0808181608083E1E8F0E0E3
:1009B0001082808182608083808181608083E0E812
:1009C000F0E0808181608083E1EBF0E080818460F1
:1009D0008083E0EBF0E0808181608083EAE7F0E0F3
:1009E0008081846080838081826080838081816057
:1009F00080838081806880831092C10008958E304A
:100A000008F08E502091060190E4299F9001112456
:100A10008770822B80937C0080917A008064809321
:100A20007A0080917A0086FDFCCF809178009091C9
:100A300079000895833081F028F4813099F0823074
:100A4000A9F008958730A9F08830C9F08430B1F456
:100A5000809180008F7D03C0809180008F7780938C
:100A60008000089584B58F7784BD089584B58F7D07
:100A7000FBCF8091B0008F778093B0000895809174
:100A8000B0008F7DF9CFCF93DF9390E0FC01E45865
:100A9000FF4F249180579F4FFC0184918823C9F018
:100AA00090E0880F991FFC01E255FF4FA591B4918A
:100AB000FC01EC55FF4FC591D49161110DC09FB75A
:100AC000F8948C91209582238C9388812823288305
:100AD0009FBFDF91CF910895623051F49FB7F89492
:100AE0003C91822F809583238C93E8812E2BEFCF2E
:100AF0008FB7F894EC912E2B2C938FBFEACF1F93D6
:100B0000CF93DF93282F30E0F901E859FF4F84910C
:100B1000F901E458FF4FD491F901E057FF4FC49118
:100B2000CC23A1F0162F811185DFEC2FF0E0EE0F22
:100B3000FF1FEC55FF4FA591B4918FB7F894EC913E
:100B4000111108C0D095DE23DC938FBFDF91CF91C8
:100B50001F910895DE2BF8CFFC01918D228D892FF6
:100B600090E0805C9F4F821B91098F7399270895B5
:100B7000FC01918D828D981731F0828DE80FF11D67
:100B8000858D90E008958FEF9FEF0895FC01918D82
:100B9000828D981761F0A28DAE0FBF2FB11D5D96AB
:100BA0008C91928D9F5F9F73928F90E008958FEF4D
:100BB0009FEF0895FC01538D448D252F30E0842F45
:100BC00090E0821B930B541710F0CF960895019775
:100BD0000895FC01A48DA80FB92FB11DA35ABF4FD2
:100BE0002C91848D90E001968F739927848FA6892C
:100BF000B7892C93A089B1898C91837080648C9380
:100C0000938D848D981306C00288F389E02D80812E
:100C10008F7D80830895CF93DF93EC01888D8823A7
:100C2000B1F0AA89BB89E889F9898C9185FD03C057
:100C3000808186FD0CC00FB607FCF7CF8C9185FF35
:100C4000F2CF808185FFEDCFCE01C3DFEACFDF9108
:100C5000CF910895EF92FF920F931F93CF93DF935D
:100C6000EC0181E0888F9B8D8C8D98131AC0E889E8
:100C7000F989808185FF15C09FB7F894EE89FF89B7
:100C80006083E889F98980818370806480839FBF55
:100C900081E090E0DF91CF911F910F91FF90EF9055
:100CA0000895F62E0B8D10E00F5F1F4F0F73112765
:100CB000E02E8C8D8E110BC00FB607FCFACFE889A1
:100CC000F989808185FFF5CFCE0183DFF2CFEB8DEF
:100CD000EC0FFD2FF11DE35AFF4FF0829FB7F89400
:100CE0000B8FEA89FB8980818062D0CFCF92DF921F
:100CF000EF92FF921F93CF93DF93EC016A017B0188
:100D0000122FE889F98982E08083C11481EED80628
:100D1000E104F10499F060E079E08DE390E0A7014F
:100D200096014FD1215031094109510956954795F6
:100D300037952795211580E1380790F0E889F989E2
:100D4000108260E874E88EE190E0A701960139D145
:100D500021503109410951095695479537952795F5
:100D6000EC85FD853083EE85FF852083188EEC8928
:100D7000FD891083EA89FB89808180618083EA890B
:100D8000FB89808188608083EA89FB898081806813
:100D90008083EA89FB8980818F7D8083DF91CF9179
:100DA0001F91FF90EF90DF90CF9008951F920F92C8
:100DB0000FB60F9211242F938F939F93EF93FF936E
:100DC000E0916C01F0916D018081E0917201F091F0
:100DD000730182FD1BC09081809175018F5F8F73BD
:100DE00020917601821741F0E0917501F0E0E45A1C
:100DF000FE4F958F80937501FF91EF919F918F9199
:100E00002F910F900FBE0F901F9018958081F4CFF7
:100E10001F920F920FB60F9211242F933F934F936F
:100E20005F936F937F938F939F93AF93BF93EF9352
:100E3000FF938CE591E0CDDEFF91EF91BF91AF91F3
:100E40009F918F917F916F915F914F913F912F91E2
:100E50000F900FBE0F901F901895ECE5F1E01382F4
:100E6000128288EE93E0A0E0B0E084839583A683AD
:100E7000B7838DE091E09183808385EC90E0958746
:100E8000848784EC90E09787868780EC90E0918B54
:100E9000808B81EC90E0938B828B82EC90E0958B41
:100EA000848B86EC90E0978B868B118E128E138E3E
:100EB000148E0895AF92BF92CF92DF92EF92FF927D
:100EC0000F931F93CF93DF936C017B018B01040F72
:100ED000151FEB015E01AE18BF08C017D10759F00E
:100EE0006991D601ED91FC910190F081E02DC60150
:100EF0000995892B79F7C501DF91CF911F910F914A
:100F0000FF90EF90DF90CF90BF90AF9008954F92F9
:100F10005F926F927F92AF92BF92CF92DF92EF92E9
:100F2000FF920F931F93CF93DF93CDB7DEB72901C5
:100F30003A019B01AC0124193509460957098989F1
:100F40009A89AB89BC89BC01CD016A197B098C09DE
:100F50009D091CD0A8019701241935094609570994
:100F600052D0CA01B9016A0D7B1D8C1D9D1DDF91F8
:100F7000CF911F910F91FF90EF90DF90CF90BF9096
:100F8000AF907F906F905F904F900895DB018F93AB
:100F90009F9364D0BF91AF91A29F800D911DA39F9D
:100FA000900DB29F900D11240895991B79E004C013
:100FB000991F961708F0961B881F7A95C9F7809598
:100FC0000895A1E21A2EAA1BBB1BFD010DC0AA1F8A
:100FD000BB1FEE1FFF1FA217B307E407F50720F0A2
:100FE000A21BB30BE40BF50B661F771F881F991F1D
:100FF0001A9469F760957095809590959B01AC0166
:10100000BD01CF010895052E97FB16F400940FD073
:1010100057FD05D0D6DF07FC02D046F408C0509536
:101020004095309521953F4F4F4F5F4F08959095D4
:101030008095709561957F4F8F4F9F4F0895A29F28
:10104000B001B39FC001A39F700D811D1124911D9C
:10105000B29F700D811D1124911D0895F0DFA59F91
:10106000900DB49F900DA49F800D911D11240895A3
:10107000EE0FFF1F0590F491E02D0994F894FFCF37
:10108000000080BF2DB4012801000000002A065A8C
:0C10900007DA050B06AC05C605B8050024
:00000001FF
