:100000000C945C000C946E000C946E000C946E00CA
:100010000C946E000C946E000C946E000C946E00A8
:100020000C946E000C946E000C946E000C946E0098
:100030000C946E000C946E000C946E000C946E0088
:100040000C9495000C946E000C946E000C946E0051
:100050000C946E000C946E000C946E000C946E0068
:100060000C946E000C946E00000000002400270029
:100070002A0000000000250028002B0004040404CE
:100080000404040402020202020203030303030342
:10009000010204081020408001020408102001021F
:1000A00004081020000000080002010000030407FB
:1000B000000000000000000011241FBECFEFD8E0B8
:1000C000DEBFCDBF21E0A0E0B1E001C01D92AB30AA
:1000D000B207E1F70E94DF000C94C8010C94000005
:1000E0003FB7F8948091070190910801A091090110
:1000F000B0910A0126B5A89B05C02F3F19F00196C3
:10010000A11DB11D3FBFBA2FA92F982F8827BC0171
:10011000CD01620F711D811D911D42E0660F771F99
:10012000881F991F4A95D1F708951F920F920FB615
:100130000F9211242F933F938F939F93AF93BF936D
:100140008091030190910401A0910501B0910601F5
:100150003091020123E0230F2D3758F50196A11DA0
:10016000B11D209302018093030190930401A09399
:100170000501B09306018091070190910801A091BB
:100180000901B0910A010196A11DB11D80930701DB
:1001900090930801A0930901B0930A01BF91AF9118
:1001A0009F918F913F912F910F900FBE0F901F90B5
:1001B000189526E8230F0296A11DB11DD2CF789481
:1001C00084B5826084BD84B5816084BD85B582605C
:1001D00085BD85B5816085BD80916E00816080930D
:1001E0006E00109281008091810082608093810076
:1001F0008091810081608093810080918000816086
:10020000809380008091B10084608093B1008091E0
:10021000B00081608093B00080917A008460809308
:100220007A0080917A00826080937A0080917A00CF
:10023000816080937A0080917A00806880937A0050
:100240001092C100CCE9D0E0FE01249108E810E052
:10025000F8018491882399F090E0880F991FFC01A0
:10026000E859FF4FA591B491FC01EE58FF4F8591DD
:1002700094918FB7F8949C91292B2C938FBF20EBEE
:10028000822E20E0922E30E0A32E30E0B32E20917B
:10029000000181E0211180E0809301018093000141
:1002A000F4019491FE018491F80134913323F9F023
:1002B000992359F0933009F451C008F044C09130AB
:1002C00009F452C0923009F453C0E32FF0E0EE0F6E
:1002D000FF1FEE58FF4FA591B4919FB7F8942223CA
:1002E00009F453C02C91809582238C939FBF0E9468
:1002F00070002B013C0188EEC82E83E0D82EE12C43
:10030000F12C0E9470006419750986099709683EEE
:10031000734081059105A8F3F1E0CF1AD108E108F7
:10032000F10828EE420E23E0521E611C711CC1141C
:10033000D104E104F10429F7A114B10409F4A7CF11
:100340000E940000A4CF9730B1F09830D1F09430E3
:1003500009F0BBCF909180009F7D03C090918000F9
:100360009F7790938000B1CF94B59F7794BDADCF28
:1003700094B59F7DFBCF9091B0009F779093B00094
:10038000A4CF9091B0009F7DF9CF2C91822BADCF5F
:04039000F894FFCF0F
:00000001FF
