:1000000061C0000087C0000085C0000083C0000000
:1000100081C000007FC000007DC000007BC00000E8
:1000200079C0000077C0000075C0000073C00000F8
:1000300071C000000C94550A6DC000006BC0000038
:100040000C94B80D67C000000C9421100C94531050
:1000500061C000005FC000005DC000005BC0000028
:1000600059C0000057C00000000000080002010055
:100070000003040700000000000000000102040863
:100080001020408001020408102001020408102002
:10009000040404040404040402020202020203032E
:1000A00003030303000000002300260029000000D2
:1000B0000000250028002B0000000000240027007D
:1000C0002A00781011241FBECFEFD8E0DEBFCDBFCD
:1000D00011E0A0E0B1E0E8EFF1E202C005900D927E
:1000E000AC3BB107D9F723E0ACEBB1E001C01D9206
:1000F000A530B207E1F710E0C2E6D0E004C02197D6
:10010000FE010E94F410C136D107C9F70E94B70A58
:100110000C94FA1075CF611102C00C94660E613018
:10012000E1F362E0FACF662319F061E00C94A20ECD
:1001300060E0FCCF0E94CF0E21E0019709F020E0A3
:10014000822F08950F931F93CF93DF93EA019C8131
:10015000882349F191110BC0F90180859185A28511
:10016000B38588839983AA83BB8381E08C83D9017B
:100170008B01288139814A815B8114966D917D9133
:100180008D919C9117970E94EF0AF801608371830B
:1001900082839383688379838A839B83DF91CF9162
:1001A0001F910F9108959923C9F31C82F7CF8F9265
:1001B0009F92AF92BF92CF92DF92EF92FF92CF9336
:1001C000DF934B015C01EA01C880D980EA80FB80A3
:1001D00020E030E0A9010E94510D181674F120E0D2
:1001E00030E0A901C501B4010E94660B881F882771
:1001F000881F91E0892790E025E0C216D104E10430
:10020000F10409F463C0AC01092E000C660B770BF6
:10021000C416D506E606F70699F440E050E0BA01A8
:10022000CB01BA01DF91CF91FF90EF90DF90CF909B
:10023000BF90AF909F908F90089582E090E0DCCFC8
:1002400023E0C216D104E104F10451F4E2E0F0E04D
:100250008130910581F421E030E0F0E0E0E010C071
:1002600024E0C216D104E104F104D1F4E3E0F0E0AB
:100270008130910581F325E030E08230910509F16C
:1002800040E050E0BA01E417F507D9F1813091055B
:1002900019F442305105C9F125303105D1F428C097
:1002A00021E0C216D104E104F10419F4F0E0E0E029
:1002B000E2CF25E030E0F0E0E0E0CD28CE28CF2806
:1002C000F9F642E050E060E070E0DDCF9C0185E0AF
:1002D00090E0A901330F660B770B488359836A833B
:1002E0007B838530910509F498CF40E050E0BA0156
:1002F000092E000CAA0BBB0B88839983AA83BB83AE
:100300008FCF40E050E0BA01C7CF83E090E042E0F9
:1003100050E060E070E0C0CF2F923F926F927F92EA
:100320008F929F92AF92BF92CF92DF92EF92FF9205
:100330000F931F93CF93DF9300D000D000D0CDB7A1
:10034000DEB71B013C0189014E835D8320E030E074
:10035000A901B8018E819D810E94660B811125C083
:1003600020E030E0A901B101C3010E94660B88239F
:1003700009F46AC061017301B601C70126960FB680
:10038000F894DEBF0FBECDBFDF91CF911F910F91CB
:10039000FF90EF90DF90CF90BF90AF909F908F90A5
:1003A0007F906F903F902F900895B101C3010E94FC
:1003B000450A882349F0C090F702D090F802E090F7
:1003C000F902F090FA02D8CFB8018E819D810E9487
:1003D000450A8111F0CFB101C3010E94020A8111C7
:1003E000EACF20E030E0A901B101C3010E94660B11
:1003F00081110BC098014E815D8160E070E0CB01FE
:100400000E946A0B6B017C01B7CFB8018E819D8180
:10041000F9D78823E9F020E030E0A901B8018E8106
:100420009D810E94660BF82EFF1CFF24FF1C20E01C
:1004300030E0A901B101C3010E94660B881F882723
:10044000881FF81609F496CF6801EE80FD8094CFDE
:1004500098014E815D81B101C3010E94550C6B0171
:100460007C01BB24B39420E030E0A9010E94660B1C
:100470008111B12C20E030E0A901B601C7010E9432
:10048000660B882309F447C0B8018E819D810E94C4
:100490003B0C9B01AC01B8018E819D810E94510DE6
:1004A0001816CCF598014E815D81B101C3010E94FF
:1004B0006A0B4B015C01E894B7F820E030E040E0C3
:1004C0005FE3C501B4010E94EF0A0E943B0C9B014F
:1004D000AC01C501B4010E94EE0A9B01AC015F773B
:1004E00029833A834B835C8320E030E040E054E38F
:1004F000C501B4010E94550D9B01AC01BB24B3940E
:1005000069817A818B819C810E94510D18160CF0B3
:10051000B12C81E0B82620E030E0A901BB2031F009
:10052000B8018E819D810E94550D6CCFB101C30130
:100530000E94660BB82EBB1CBB24BB1C20E030E025
:10054000A901B8018E819D810E94660B881F8827B2
:10055000881FB81609F410CF98014E815D81B6014D
:10056000C7010E94EF0A4ECFCF92DF92EF92FF9227
:100570006B017C019F7720E030E040E859E50E9464
:10058000660B87FF2BC020E030E040E05FE3C7014F
:10059000B6010E94510D87FD0EC020E030E040E022
:1005A0005FE3C701B6010E94EF0AFF90EF90DF9072
:1005B000CF900C943B0C20E030E040E05FEBC701B3
:1005C000B6010E94510D181684F420E030E0A90114
:1005D000C701B6010E94550D6B017C01C701B60130
:1005E000FF90EF90DF90CF90089520E030E040E062
:1005F0005FE3C701B601F2D7FF90EF90DF90CF9095
:100600000C94530B2F923F924F925F926F927F9276
:100610008F929F92AF92BF92CF92DF92EF92FF9212
:10062000CF93DF93CDB7DEB761970FB6F894DEBFF7
:100630000FBECDBF20E030E0A90160912B01709189
:100640002C0180912D0190912E010E94660B882330
:1006500021F081E09091D802911180E08093D8023E
:10066000C0900B01D0900C01E0900D01F0900E01B4
:10067000A70196016091A0027091A1028091A2024F
:100680009091A3020E94660B882341F0C092A002C1
:10069000D092A102E092A202F092A3028DE04ADD84
:1006A0002CE931E046EE52E064E872E04BDD20E0F8
:1006B00030E040E251E460918402709185028091C3
:1006C0008602909187020E94660B8111FDC1809184
:1006D000980190919901A0919A01B0919B0180930A
:1006E000880290938902A0938A02B0938B02C090F3
:1006F0001F01D0902001E0902101F0902201A7017C
:100700009601609194027091950280919602909169
:100710009702DCD7882341F0C0929402D0929502D0
:10072000E0929602F09297028BE004DD28E731E038
:100730004CED52E06CE772E005DD20E030E040E295
:1007400051E460917C0270917D0280917E029091D3
:100750007F02BCD78111C1C1809074019090750156
:10076000A0907601B0907701C0900701D090080169
:10077000E0900901F0900A01A70196016091AC0296
:100780007091AD028091AE029091AF029FD7882305
:1007900041F0C092AC02D092AD02E092AE02F09273
:1007A000AF028CE0C7DC2CE831E041EE52E060E8BB
:1007B00072E0C8DC20E030E040E251E46091800269
:1007C0007091810280918202909183027FD7811182
:1007D0008DC1C0908801D0908901E0908A01F0908D
:1007E0008B0120E030E040E85FE3C501B4016ED743
:1007F000882309F484C120E030E040E85FE3C701CA
:10080000B60164D7882309F47AC110926C02109261
:100810006D0210926E0210926F0260916C027091E4
:100820006D0280916E0290916F0248EC52E0BFDC45
:10083000672B682B692B21F0809100018093D902EE
:10084000609188027091890280918A0290918B0256
:1008500044EC52E0ACDC672B682B692B41F08091B3
:10086000D9028F3F09F458C18F5F8093D90240901D
:100870002F015090300160903101709032016091F1
:10088000D90270E090E080E0B9D7A301920144DD85
:1008900069877A878B879C87109268021092690219
:1008A00010926A0210926B0220E030E040E85FE3B1
:1008B000609188027091890280918A0290918B02E6
:1008C00005D7882349F020E030E040E85FE3C70126
:1008D000B601FCD681110CC080E090E0A0E8BFE337
:1008E0008093680290936902A0936A02B0936B02AE
:1008F000609168027091690280916A0290916B0226
:1009000040ED52E054DC672B682B692B21F080917D
:1009100001018093DA024CEC52E0C501B40147DCDE
:10092000672B682B692B41F08091DA028F3F09F425
:10093000F6C08F5F8093DA0240903301509034010B
:1009400060903501709036016091DA0270E090E0BD
:1009500080E054D7A3019201DFDC6D877E878F870B
:10096000988B44ED52E0C701B60121DC672B682B60
:10097000692B41F08091DB028F3F09F4D3C08F5F78
:100980008093DB024090370150903801609039012C
:1009900070903A016091DB0270E090E080E02ED729
:1009A000A3019201B9DC6D837E838F8398872090A9
:1009B00088023090890240908A0250908B0220E099
:1009C00030E0A901C201B10181D68111AEC020E0A1
:1009D00030E0A901C501B40179D68111A9C081E037
:1009E000898B20E030E0A901C701B6016FD68111E3
:1009F00001C0198A9989992309F468C18091670215
:100A0000813009F463C120E030E040E85FE36D81AC
:100A10007E818F8198855AD6882309F498C020E07A
:100A200030E040E85FE3C201B10150D6811183C0DC
:100A300020E030E0A901C501B40148D681117BC096
:100A40007724739420E030E0A901C701B6013ED6B7
:100A50008111712C772009F46FC020E030E040E86C
:100A60005FE369857A858B859C8530D6882309F478
:100A700074C020E030E0A901C201B10127D6811184
:100A800015C020E030E040E85FE3C501B4011ED6A8
:100A9000811109C020E030E0A901C701B60116D6D6
:100AA000882309F421C2772009F437C220E030E01E
:100AB000A90169857A858B859C8508D681112DC20F
:100AC000C12CD12C760151C2809103019091040177
:100AD000A0910501B091060102CE80907001909026
:100AE0007101A0907201B09073013ECEC09084015C
:100AF000D0908501E0908601F090870172CE80E071
:100B000090E0A0E8BFE380936C0290936D02A09305
:100B10006E02B0936F0281CE1092D902A8CE1092CD
:100B2000DA020ACF1092DB022DCFA1E0A98B66CFAB
:100B3000B1E0B98B63CF712C20E030E0A901C20194
:100B4000B101C4D5882309F49CCF80E0F9C1C12C40
:100B5000D12C20E4E22EFE2C08C2C12CD12C90E82E
:100B6000E92E9FE3F92E01C2C12CD12CE12C80E4A7
:100B7000F82EFBC120E030E040E85FE369817A8134
:100B80008B819C81A3D5811140C220E030E0A90176
:100B90006D817E818F81988599D581111AC020E061
:100BA00030E0A90169857A858B859C858FD5811177
:100BB00010C020E030E0A901C201B10187D5811148
:100BC00008C020E030E0A901C501B4017FD5882329
:100BD00049F020E030E040E85FE3C701B60176D598
:100BE000811131C08091680190916901A0916A01E1
:100BF000B0916B018093740290937502A09376027A
:100C0000B093770280916C0190916D01A0916E017B
:100C1000B0916F018093780290937902A0937A0249
:100C2000B0937B0280914C0190914D01A0914E01B7
:100C3000B0914F018093700290937102A093720261
:100C4000B093730233C020E030E040E050E4C701CD
:100C5000B6013CD5882309F407C220E030E040E427
:100C600050E4C701B60132D58111DFC0809158012F
:100C700090915901A0915A01B0915B018093740247
:100C800090937502A0937602B093770280915C01F5
:100C900090915D01A0915E01B0915F018093780217
:100CA00090937902A0937A02B0937B0280917002B4
:100CB00090917102A0917202B09173028093C00270
:100CC0009093C102A093C202B093C30299899093FA
:100CD000670220913B0130913C0140913D015091D0
:100CE0003E0160917402709175028091760290913C
:100CF0007702D7D618160CF0D5C06091D80270E0F4
:100D000090E080E07BD560938802709389028093A5
:100D10008A0290938B02609188027091890280917F
:100D20008A0290918B0220DC6B017C01C0928802C8
:100D3000D0928902E0928A02F0928B0220E030E0A9
:100D400040E853E4C3D46FEF87FF0CC020E030E0ED
:100D5000A901C701B601A5D660E087FD03C0C701A0
:100D6000B60120D589E0DFD920913F0130914001C3
:100D70004091410150914201609178027091790255
:100D800080917A0290917B028CD618160CF09BC051
:100D90006091D80270E090E080E030D560938802E6
:100DA0007093890280938A0290938B0260918802EB
:100DB0007091890280918A0290918B02D5DB6B0140
:100DC0007C01C0928802D0928902E0928A02F0925D
:100DD0008B0220E030E040E853E478D46FEF87FFE7
:100DE0000CC020E030E0A901C701B6015AD660E08E
:100DF00087FD03C0C701B601D5D488E061960FB660
:100E0000F894DEBF0FBECDBFDF91CF91FF90EF9082
:100E1000DF90CF90BF90AF909F908F907F906F901A
:100E20005F904F903F902F907EC920E030E0A90165
:100E3000C701B6014BD4811139CF809150019091F7
:100E40005101A0915201B09153018093740290938B
:100E50007502A0937602B09377028091540190912D
:100E60005501A0915601B09157018093780290935B
:100E70007902A0937A02B0937B0220E030E0A901CE
:100E8000C701B60123D4811111CF80914401909103
:100E90004501A0914601B0914701CCCEC12CD12C87
:100EA0007601CBCF8091270190912801A091290153
:100EB000B0912A018093880290938902A0938A02BC
:100EC000B0938B0228CF8091230190912401A091AF
:100ED0002501B09126018093880290938902A09306
:100EE0008A02B0938B0262CF7110E7C020E030E03D
:100EF000A9016D857E858F859889E8D3882309F4BB
:100F0000DFCD20E030E040E85FE36D857E858F85B2
:100F10009889DCD3882309F427CE20E030E0A901AA
:100F2000C201B101D3D3811110CE81E0898320E0C9
:100F300030E0A901C501B401C9D3811119828981A9
:100F4000C090C002D090C102E090C202F090C302F3
:100F5000882309F4B5CD20E030E0A9016D817E81C0
:100F60008F819885B3D38111ABCD8091C0029091D0
:100F7000C102A091C202B091C30289839A83AB835C
:100F8000BC8320E030E0A901BC01CD019FD38111D9
:100F9000F1CD20E030E0A9016D817E818F819885BF
:100FA00095D3811126C020E030E0A901C201B10132
:100FB0008DD3811109C020E030E0A901C501B40141
:100FC00085D3882309F46ACF20E030E040E85FE36E
:100FD00069817A818B819C8179D3882309F4DFCD63
:100FE00020E030E040E050E469817A818B819C818F
:100FF0001EC020E030E040E85FE369817A818B81A8
:101000009C8164D3882309F4E4CD20E030E040E003
:1010100050E469817A818B819C8158D38111D9CD2B
:1010200020E030E0A9016D817E818F8198854ED3CB
:101030008111CFCD20E030E0A9016D857E858F85BF
:10104000988944D38111C5CD20E030E0A901C201C7
:10105000B1013CD38111BDCD20E030E0A901C50133
:10106000B40134D38111B5CD8091600190916101BB
:10107000A0916201B0916301809374029093750214
:10108000A0937602B09377028091640190916501FC
:10109000A0916601B09167018093780290937902E4
:1010A000A0937A02B0937B0280914801909149010C
:1010B000A0914A01B0914B01BDCD20E030E0A901E3
:1010C00069857A858B859C8501D381110FCFF8CCFA
:1010D0008F929F92AF92BF92FF920F931F93CF93E5
:1010E000DF9384E090E057D1FF24F394F0926702FD
:1010F000CCE8D2E000E011E0809143018093D80277
:1011000085E090E0A0E0B0E088AF99AFAAAFBBAFB8
:101110008CAF9DAFAEAFBFAFF80120812093D90255
:101120008093CC029093CD02A093CE02B093CF02D5
:101130008093D0029093D102A093D202B093D302B5
:1011400021812093DA028093D4029093D502A09358
:10115000D602B093D70282818093DB028091A401F2
:101160009091A501A091A601B091A7018093E602FC
:101170009093E702A093E802B093E902E8E6F2E078
:1011800080919C0190919D01A0919E01B0919F0141
:10119000848F958FA68FB78F809180019091810168
:1011A000A0918201B09183018093DC029093DD02D3
:1011B000A093DE02B093DF028091780190917901D3
:1011C000A0917A01B0917B01848B958BA68BB78B14
:1011D0008091940190919501A0919601B091970111
:1011E0008093E1029093E202A093E302B093E402C1
:1011F00080918C0190918D01A0918E01B0918F0111
:10120000808F918FA28FB38FD8011F964D915D91E2
:101210006D917C9152974CAB5DAB6EAB7FAB5396AF
:101220004D915D916D917C91569740875187628772
:10123000738757964D915D916D917C915A97448734
:101240005587668777875B964D915D916D917C910F
:101250005E97408B518B628B738B1C861B968D9196
:101260009D910D90BC91A02D8C8B9D8BAE8BBF8BD7
:10127000812C912C540183948D869E86AF86B88AEA
:1012800062E08DE00E948B00F98A1882F801878D58
:1012900090A1A1A1B2A188879987AA87BB878982DB
:1012A0009A82AB82BC8262E08BE00E948B00FD825E
:1012B000188EF80187819085A185B28588A399A3AE
:1012C000AAA3BBA3898E9A8EAB8EBC8E62E08CE003
:1012D0000E948B00FD8E1CA68DA69EA6AFA6B8AA66
:1012E00061E089E00E948B00F9AA1CA28DA29EA257
:1012F000AFA2B8A661E088E00E948B00F9A6DF915A
:10130000CF911F910F91FF90BF90AF909F908F90C2
:10131000089580919802811103C081E08093980222
:1013200080918C02811103C081E080938C028091B6
:10133000A402811103C081E08093A4028091B802CD
:10134000811103C081E08093B8028091B0028111C5
:1013500003C081E08093B002089560E070E080E80F
:101360009FE7089560E070E080E89FE7089560E0FF
:1013700070E080E89FEF089560E070E080E89FEF04
:10138000089560E070E080EC9FEF089560E070E009
:1013900080EC9FEF0895F5DF6093F7027093F802F9
:1013A0008093F9029093FA02F1DF6093EB0270935D
:1013B000EC028093ED029093EE02CFDF6093F30294
:1013C0007093F4028093F5029093F602CBDF609362
:1013D000EF027093F0028093F1029093F202C7DF64
:1013E0006093FB027093FC028093FD029093FE02D7
:1013F000C3DF6093FF027093000380930103909317
:1014000002030895CF92DF92EF92FF92CF936B0188
:101410007C01AC019B016091F3027091F402809118
:10142000F5029091F60252D1C1E0882369F0A7013C
:1014300096016091FB027091FC028091FD029091F7
:10144000FE0244D18111C0E08C2FCF91FF90EF902C
:10145000DF90CF9008950F931F938B019C0100277D
:10146000112720783F770115110520483F4749F49F
:10147000AB01BC016F77772781E0452B462B472BCB
:1014800009F480E01F910F910895E5CF26E030E048
:1014900040E855E260E070E090E080E000C0892B19
:1014A00019F48AEC91E06DC508951F920F920FB662
:1014B0000F9211242F933F934F935F936F937F93DA
:1014C0008F939F93AF93BF93EF93FF9387EF92EC2C
:1014D000909385008093840032D0FF91EF91BF916B
:1014E000AF919F918F917F916F915F914F913F91BC
:1014F0002F910F900FBE0F901F90189587EF92ECD1
:101500009093850080938400AFE6B0E08C918E7F4D
:101510008C93E0E8F0E080818C7F8083E1E8F0E06C
:101520008081877E808380818560808380818D7FBC
:1015300080838C9181608C93089581E008958091DF
:10154000BE0191E0980F9093BE01882349F021E0FD
:1015500030E03093C0012093BF018093BE01089515
:10156000789450D8F8948091BE018150F6CFCF93F3
:10157000DF93109204031092030344D387DFC091DA
:10158000A801D091A90119821882A2DDF894B6DFD2
:101590002881398181E0232B09F080E080930303C7
:1015A0007894789480910303811107C0B2DEF89497
:1015B00090E080E0DF91CF9108952881398181E02A
:1015C000232B09F480E0809304039091040381E0CD
:1015D000911180E080930303B0DFE4CF5058BB2724
:1015E000AA270ED00DC2FED130F003D220F031F484
:1015F0009F3F11F41EF4F3C10EF4E095E7FBC0C168
:10160000E92F0FD280F3BA17620773078407950793
:1016100018F071F49EF53EC20EF4E0950B2EBA2F31
:10162000A02D0B01B90190010C01CA01A0011124E8
:10163000FF27591B99F0593F50F4503E68F11A1694
:10164000F040A22F232F342F4427585FF3CF469525
:1016500037952795A795F0405395C9F77EF41F1647
:10166000BA0B620B730B840BBAF09150A1F0FF0F11
:10167000BB1F661F771F881FC2F70EC0BA0F621FFD
:10168000731F841F48F4879577956795B795F795ED
:101690009E3F08F0B3CF9395880F08F09927EE0F7F
:1016A000979587950895DFD180F09F3740F4911189
:1016B0000EF4F1C160E070E080E89FE3089526F049
:1016C0001B16611D711D811D61C17BC135D108F4DF
:1016D00081E008950CD094C18CD140F083D130F0DA
:1016E00021F45F3F19F04CC15111D5C178C199D196
:1016F00098F39923C9F35523B1F3951B550BBB27D9
:10170000AA2762177307840738F09F5F5F4F220F85
:10171000331F441FAA1FA9F333D00E2E3AF0E0E87E
:1017200030D091505040E695001CCAF729D0FE2FCA
:1017300027D0660F771F881FBB1F2617370748075C
:10174000AB07B0E809F0BB0B802DBF01FF27935812
:101750005F4F2AF09E3F510568F012C19CC15F3F68
:10176000ECF3983EDCF3869577956795B795F795FA
:101770009F5FC9F7880F911D9695879597F90895F2
:10178000E1E0660F771F881FBB1F6217730784078E
:10179000BA0720F0621B730B840BBA0BEE1F88F79D
:1017A000E095089546D188F09F5790F0B92F99277A
:1017B000B751A0F0D1F0660F771F881F991F1AF05C
:1017C000BA95C9F712C0B13081F064D1B1E0089583
:1017D00061C1672F782F8827B85F39F0B93FCCF304
:1017E000869577956795B395D9F73EF49095809552
:1017F000709561957F4F8F4F9F4F0895E89409C072
:1018000097FB3EF490958095709561957F4F8F4F33
:101810009F4F9923A9F0F92F96E9BB279395F69549
:10182000879577956795B795F111F8CFFAF4BB0FC7
:1018300011F460FF1BC06F5F7F4F8F4F9F4F16C02B
:10184000882311F096E911C0772321F09EE8872FB5
:10185000762F05C0662371F096E8862F70E060E071
:101860002AF09A95660F771F881FDAF7880F9695EA
:10187000879597F90895F7D080F09F3740F491113C
:101880000EF009C160E070E080E89FEB089526F457
:101890001B16611D711D811D79C093C0A3D018F066
:1018A00011F0A7D038F49BC0F6C0E92FBAD0B0F33E
:1018B0005523C9F3E7FB6217730784079507A8F15F
:1018C00099F3E92FFF2788232AF03197660F771FB6
:1018D000881FDAF7952F5527442332F09150504056
:1018E000220F331F441FD2F7BB27E91BF50B621BE6
:1018F000730B840BB109C1F222F4620F731F841FB2
:10190000B11D31972AF0660F771F881FBB1FEFCFDD
:10191000915050405AF041F0882332F0660F771F03
:10192000881F91505040C1F793954BC0869577958D
:1019300067959F5FD9F7F8CF990F0008550FAA0B4D
:10194000E0E8FEEF16161706E807F907C0F01216D2
:101950001306E407F50798F0621B730B840B950BD5
:1019600039F40A2661F0232B242B252B21F408952A
:101970000A2609F4A140A6958FEF811D811D0895C7
:1019800097F99F6780E870E060E00895882371F41C
:10199000772321F09850872B762F07C0662311F408
:1019A00099270DC09051862B70E060E02AF09A953F
:1019B000660F771F881FDAF7880F9695879597F936
:1019C00008959F3F31F0915020F487957795679562
:1019D000B795880F911D9695879597F908959FEF74
:1019E00080EC089500240A941616170618060906B6
:1019F000089500240A941216130614060506089585
:101A0000092E0394000C11F4882352F0BB0F40F40C
:101A1000BF2B11F460FF04C06F5F7F4F8F4F9F4F4C
:101A2000089557FD9058440F551F59F05F3F71F0CE
:101A30004795880F97FB991F61F09F3F79F0879535
:101A40000895121613061406551FF2CF4695F1DFBE
:101A500008C0161617061806991FF1CF869571054E
:101A6000610508940895E5DFA0F0BEE7B91788F492
:101A7000BB279F3860F41616B11D672F782F882773
:101A8000985FF7CF869577956795B11D93959639B1
:101A9000C8F30895E894BB2766277727CB0197F909
:101AA00008954ADF08F48FEF08950BD0A9CF9ADF8D
:101AB00028F09FDF18F0952309F062CF90CF112412
:101AC000EACFAFDFA0F3959FD1F3950F50E0551FFC
:101AD000629FF001729FBB27F00DB11D639FAA2783
:101AE000F00DB11DAA1F649F6627B00DA11D661FD2
:101AF000829F2227B00DA11D621F739FB00DA11DF3
:101B0000621F839FA00D611D221F749F3327A00DAC
:101B1000611D231F849F600D211D822F762F6A2F48
:101B200011249F5750408AF0E1F088234AF0EE0FCD
:101B3000FF1FBB1F661F771F881F91505040A9F7DA
:101B40009E3F510570F01CCFA6CF5F3FECF3983E4F
:101B5000DCF3869577956795B795F795E7959F5F41
:101B6000C1F7FE2B880F911D9695879597F90895DB
:101B70001F920F920FB60F9211242F933F938F93C2
:101B80009F93AF93BF938091C2019091C301A091A5
:101B9000C401B091C5013091C10123E0230F2D375D
:101BA00058F50196A11DB11D2093C1018093C2017A
:101BB0009093C301A093C401B093C5018091C60165
:101BC0009091C701A091C801B091C9010196A11DD2
:101BD000B11D8093C6019093C701A093C801B09333
:101BE000C901BF91AF919F918F913F912F910F901C
:101BF0000FBE0F901F90189526E8230F0296A11D87
:101C0000B11DD2CF789484B5826084BD84B58160E3
:101C100084BD85B5826085BD85B5816085BDEEE6F4
:101C2000F0E0808181608083E1E8F0E010828081D3
:101C300082608083808181608083E0E8F0E0808141
:101C400081608083E1EBF0E0808184608083E0EB61
:101C5000F0E0808181608083EAE7F0E08081846049
:101C600080838081826080838081816080838081A5
:101C7000806880831092C1000895833081F028F439
:101C8000813099F08230A9F008958730A9F088302A
:101C9000C9F08430B1F4809180008F7D03C08091C1
:101CA00080008F7780938000089584B58F7784BDFE
:101CB000089584B58F7DFBCF8091B0008F7780939E
:101CC000B00008958091B0008F7DF9CFCF93DF935E
:101CD00090E0FC01E458FF4F249180579F4FFC0196
:101CE00084918823C9F090E0880F991FFC01E85483
:101CF000FF4FA591B491FC01E255FF4FC591D491DE
:101D000061110DC09FB7F8948C91209582238C931C
:101D10008881282328839FBFDF91CF910895623067
:101D200051F49FB7F8943C91822F809583238C9334
:101D3000E8812E2BEFCF8FB7F894EC912E2B2C93BC
:101D40008FBFEACF1F93CF93DF93282F30E0F901A5
:101D5000E859FF4F8491F901E458FF4FD491F901FC
:101D6000E057FF4FC491CC23A1F0162F811185DFDE
:101D7000EC2FF0E0EE0FFF1FE255FF4FA591B4915D
:101D80008FB7F894EC91111108C0D095DE23DC9345
:101D90008FBFDF91CF911F910895DE2BF8CFCF93A6
:101DA000DF93282F30E0F901E859FF4F8491F901C2
:101DB000E458FF4FD491F901E057FF4FC491CC2371
:101DC00099F081115ADFEC2FF0E0EE0FFF1FEC5578
:101DD000FF4FA591B491EC91ED2381E090E009F4DF
:101DE00080E0DF91CF91089580E090E0FACFFC0190
:101DF000918D228D892F90E0805C9F4F821B9109ED
:101E00008F7399270895FC01918D828D981731F079
:101E1000828DE80FF11D858D90E008958FEF9FEF83
:101E20000895FC01918D828D981761F0A28DAE0FFF
:101E3000BF2FB11D5D968C91928D9F5F9F73928F86
:101E400090E008958FEF9FEF0895FC01538D448D2E
:101E5000252F30E0842F90E0821B930B541710F055
:101E6000CF96089501970895FC01A48DA80FB92F6E
:101E7000B11DA35ABF4F2C91848D90E001968F73B2
:101E80009927848FA689B7892C93A089B1898C91D1
:101E9000837080648C93938D848D981306C0028820
:101EA000F389E02D80818F7D80830895CF93DF9328
:101EB000EC01888D8823B1F0AA89BB89E889F9896A
:101EC0008C9185FD03C0808186FD0CC00FB607FC98
:101ED000F7CF8C9185FFF2CF808185FFEDCFCE01CA
:101EE000C3DFEACFDF91CF910895EF92FF920F9376
:101EF0001F93CF93DF93EC0181E0888F9B8D8C8DB6
:101F000098131AC0E889F989808185FF15C09FB7A9
:101F1000F894EE89FF896083E889F989808183706C
:101F2000806480839FBF81E090E0DF91CF911F911B
:101F30000F91FF90EF900895F62E0B8D10E00F5F3C
:101F40001F4F0F731127E02E8C8D8E110BC00FB613
:101F500007FCFACFE889F989808185FFF5CFCE01AA
:101F600083DFF2CFEB8DEC0FFD2FF11DE35AFF4F16
:101F7000F0829FB7F8940B8FEA89FB898081806299
:101F8000D0CFCF92DF92EF92FF921F93CF93DF9348
:101F9000EC016A017B01122FE889F98982E08083D4
:101FA000C11481EED806E104F10499F060E079E013
:101FB0008DE390E0A7019601F5D021503109410948
:101FC00051095695479537952795211580E1380792
:101FD00090F0E889F989108260E874E88EE190E079
:101FE000A7019601DFD021503109410951095695C9
:101FF000479537952795EC85FD853083EE85FF85E0
:102000002083188EEC89FD891083EA89FB89808101
:1020100080618083EA89FB89808188608083EA8986
:10202000FB89808180688083EA89FB8980818F7D3C
:102030008083DF91CF911F91FF90EF90DF90CF9041
:1020400008951F920F920FB60F9211242F938F9322
:102050009F93EF93FF93E091DA01F091DB01808190
:10206000E091E001F091E10182FD1BC0908180913F
:10207000E3018F5F8F732091E401821741F0E091BB
:10208000E301F0E0E653FE4F958F8093E301FF916B
:10209000EF919F918F912F910F900FBE0F901F90F6
:1020A00018958081F4CF1F920F920FB60F921124D2
:1020B0002F933F934F935F936F937F938F939F9350
:1020C000AF93BF93EF93FF938AEC91E0CDDEFF9146
:1020D000EF91BF91AF919F918F917F916F915F91A0
:1020E0004F913F912F910F900FBE0F901F90189519
:1020F000EAECF1E01382128288EE93E0A0E0B0E017
:1021000084839583A683B7838EEA91E0918380834D
:1021100085EC90E09587848784EC90E097878687AC
:1021200080EC90E0918B808B81EC90E0938B828BA4
:1021300082EC90E0958B848B86EC90E0978B868B7D
:10214000118E128E138E148E0895AF92BF92CF927D
:10215000DF92EF92FF920F931F93CF93DF936C0167
:102160007B018B01040F151FEB015E01AE18BF0848
:10217000C017D10759F06991D601ED91FC910190FA
:10218000F081E02DC6010995892B79F7C501DF9112
:10219000CF911F910F91FF90EF90DF90CF90BF9064
:1021A000AF900895A1E21A2EAA1BBB1BFD010DC022
:1021B000AA1FBB1FEE1FFF1FA217B307E407F507F7
:1021C00020F0A21BB30BE40BF50B661F771F881FD3
:1021D000991F1A9469F760957095809590959B0169
:1021E000AC01BD01CF010895EE0FFF1F0590F491E2
:0821F000E02D0994F894FFCFE3
:1021F800000000000000000000803F0000803F0059
:1022080000000000000000000000000000000000C6
:1022180000803F00000000000000000000803F0038
:1022280000004000000040000000400000000000E6
:102238000000000100000000000000400000803F96
:1022480000000000000000000000803F0000803F08
:10225800000000000000803F0000803F00000000F8
:10226800000000000000803F000000000000803FE8
:1022780000000000000000000000803F0000000097
:102288000000803F000000000000803F00000000C8
:102298000000803F00000000BC0100000000750F36
:0C22A800A510250F560FF70E110F030FA5
:00000001FF
